{
  "_format": "hh-sol-artifact-1",
  "contractName": "Furystaker",
  "sourceName": "contracts/Furystaker.sol",
  "abi": [
    {
      "inputs": [
        {
          "internalType": "address payable",
          "name": "wallet",
          "type": "address"
        },
        {
          "internalType": "address payable",
          "name": "dWallet",
          "type": "address"
        },
        {
          "internalType": "uint256",
          "name": "startDate",
          "type": "uint256"
        }
      ],
      "stateMutability": "nonpayable",
      "type": "constructor"
    },
    {
      "anonymous": false,
      "inputs": [
        {
          "indexed": true,
          "internalType": "address",
          "name": "user",
          "type": "address"
        },
        {
          "indexed": false,
          "internalType": "uint256",
          "name": "totalAmount",
          "type": "uint256"
        }
      ],
      "name": "FeePayed",
      "type": "event"
    },
    {
      "anonymous": false,
      "inputs": [
        {
          "indexed": true,
          "internalType": "address",
          "name": "user",
          "type": "address"
        },
        {
          "indexed": false,
          "internalType": "uint8",
          "name": "plan",
          "type": "uint8"
        },
        {
          "indexed": false,
          "internalType": "uint256",
          "name": "percent",
          "type": "uint256"
        },
        {
          "indexed": false,
          "internalType": "uint256",
          "name": "amount",
          "type": "uint256"
        },
        {
          "indexed": false,
          "internalType": "uint256",
          "name": "profit",
          "type": "uint256"
        },
        {
          "indexed": false,
          "internalType": "uint256",
          "name": "start",
          "type": "uint256"
        },
        {
          "indexed": false,
          "internalType": "uint256",
          "name": "finish",
          "type": "uint256"
        }
      ],
      "name": "NewDeposit",
      "type": "event"
    },
    {
      "anonymous": false,
      "inputs": [
        {
          "indexed": false,
          "internalType": "address",
          "name": "user",
          "type": "address"
        }
      ],
      "name": "Newbie",
      "type": "event"
    },
    {
      "anonymous": false,
      "inputs": [
        {
          "indexed": true,
          "internalType": "address",
          "name": "referrer",
          "type": "address"
        },
        {
          "indexed": true,
          "internalType": "address",
          "name": "referral",
          "type": "address"
        },
        {
          "indexed": true,
          "internalType": "uint256",
          "name": "level",
          "type": "uint256"
        },
        {
          "indexed": false,
          "internalType": "uint256",
          "name": "amount",
          "type": "uint256"
        }
      ],
      "name": "RefBonus",
      "type": "event"
    },
    {
      "anonymous": false,
      "inputs": [
        {
          "indexed": true,
          "internalType": "address",
          "name": "user",
          "type": "address"
        },
        {
          "indexed": false,
          "internalType": "uint256",
          "name": "amount",
          "type": "uint256"
        }
      ],
      "name": "Withdrawn",
      "type": "event"
    },
    {
      "inputs": [],
      "name": "INVEST_MAX_AMOUNT",
      "outputs": [
        {
          "internalType": "uint256",
          "name": "",
          "type": "uint256"
        }
      ],
      "stateMutability": "view",
      "type": "function"
    },
    {
      "inputs": [],
      "name": "INVEST_MIN_AMOUNT",
      "outputs": [
        {
          "internalType": "uint256",
          "name": "",
          "type": "uint256"
        }
      ],
      "stateMutability": "view",
      "type": "function"
    },
    {
      "inputs": [],
      "name": "PERCENTS_DIVIDER",
      "outputs": [
        {
          "internalType": "uint256",
          "name": "",
          "type": "uint256"
        }
      ],
      "stateMutability": "view",
      "type": "function"
    },
    {
      "inputs": [],
      "name": "PERCENT_STEP",
      "outputs": [
        {
          "internalType": "uint256",
          "name": "",
          "type": "uint256"
        }
      ],
      "stateMutability": "view",
      "type": "function"
    },
    {
      "inputs": [],
      "name": "PROJECT_AND_DEV_FEE_ON_WITHDRAWAL_ONLY",
      "outputs": [
        {
          "internalType": "uint256",
          "name": "",
          "type": "uint256"
        }
      ],
      "stateMutability": "view",
      "type": "function"
    },
    {
      "inputs": [
        {
          "internalType": "uint256",
          "name": "",
          "type": "uint256"
        }
      ],
      "name": "REFERRAL_PERCENTS",
      "outputs": [
        {
          "internalType": "uint256",
          "name": "",
          "type": "uint256"
        }
      ],
      "stateMutability": "view",
      "type": "function"
    },
    {
      "inputs": [],
      "name": "TIME_STEP",
      "outputs": [
        {
          "internalType": "uint256",
          "name": "",
          "type": "uint256"
        }
      ],
      "stateMutability": "view",
      "type": "function"
    },
    {
      "inputs": [],
      "name": "devWallet",
      "outputs": [
        {
          "internalType": "address payable",
          "name": "",
          "type": "address"
        }
      ],
      "stateMutability": "view",
      "type": "function"
    },
    {
      "inputs": [],
      "name": "getContractBalance",
      "outputs": [
        {
          "internalType": "uint256",
          "name": "",
          "type": "uint256"
        }
      ],
      "stateMutability": "view",
      "type": "function"
    },
    {
      "inputs": [
        {
          "internalType": "uint8",
          "name": "plan",
          "type": "uint8"
        }
      ],
      "name": "getPercent",
      "outputs": [
        {
          "internalType": "uint256",
          "name": "",
          "type": "uint256"
        }
      ],
      "stateMutability": "view",
      "type": "function"
    },
    {
      "inputs": [
        {
          "internalType": "uint8",
          "name": "plan",
          "type": "uint8"
        }
      ],
      "name": "getPlanInfo",
      "outputs": [
        {
          "internalType": "uint256",
          "name": "time",
          "type": "uint256"
        },
        {
          "internalType": "uint256",
          "name": "percent",
          "type": "uint256"
        }
      ],
      "stateMutability": "view",
      "type": "function"
    },
    {
      "inputs": [
        {
          "internalType": "uint8",
          "name": "plan",
          "type": "uint8"
        },
        {
          "internalType": "uint256",
          "name": "deposit",
          "type": "uint256"
        }
      ],
      "name": "getResult",
      "outputs": [
        {
          "internalType": "uint256",
          "name": "percent",
          "type": "uint256"
        },
        {
          "internalType": "uint256",
          "name": "profit",
          "type": "uint256"
        },
        {
          "internalType": "uint256",
          "name": "finish",
          "type": "uint256"
        }
      ],
      "stateMutability": "view",
      "type": "function"
    },
    {
      "inputs": [
        {
          "internalType": "address",
          "name": "userAddress",
          "type": "address"
        }
      ],
      "name": "getUserAmountOfDeposits",
      "outputs": [
        {
          "internalType": "uint256",
          "name": "",
          "type": "uint256"
        }
      ],
      "stateMutability": "view",
      "type": "function"
    },
    {
      "inputs": [
        {
          "internalType": "address",
          "name": "userAddress",
          "type": "address"
        }
      ],
      "name": "getUserAvailable",
      "outputs": [
        {
          "internalType": "uint256",
          "name": "",
          "type": "uint256"
        }
      ],
      "stateMutability": "view",
      "type": "function"
    },
    {
      "inputs": [
        {
          "internalType": "address",
          "name": "userAddress",
          "type": "address"
        }
      ],
      "name": "getUserCheckpoint",
      "outputs": [
        {
          "internalType": "uint256",
          "name": "",
          "type": "uint256"
        }
      ],
      "stateMutability": "view",
      "type": "function"
    },
    {
      "inputs": [
        {
          "internalType": "address",
          "name": "userAddress",
          "type": "address"
        },
        {
          "internalType": "uint256",
          "name": "index",
          "type": "uint256"
        }
      ],
      "name": "getUserDepositInfo",
      "outputs": [
        {
          "internalType": "uint8",
          "name": "plan",
          "type": "uint8"
        },
        {
          "internalType": "uint256",
          "name": "percent",
          "type": "uint256"
        },
        {
          "internalType": "uint256",
          "name": "amount",
          "type": "uint256"
        },
        {
          "internalType": "uint256",
          "name": "profit",
          "type": "uint256"
        },
        {
          "internalType": "uint256",
          "name": "start",
          "type": "uint256"
        },
        {
          "internalType": "uint256",
          "name": "finish",
          "type": "uint256"
        }
      ],
      "stateMutability": "view",
      "type": "function"
    },
    {
      "inputs": [
        {
          "internalType": "address",
          "name": "userAddress",
          "type": "address"
        }
      ],
      "name": "getUserDividends",
      "outputs": [
        {
          "internalType": "uint256",
          "name": "",
          "type": "uint256"
        }
      ],
      "stateMutability": "view",
      "type": "function"
    },
    {
      "inputs": [
        {
          "internalType": "address",
          "name": "userAddress",
          "type": "address"
        }
      ],
      "name": "getUserDownlineCount",
      "outputs": [
        {
          "internalType": "uint256",
          "name": "",
          "type": "uint256"
        },
        {
          "internalType": "uint256",
          "name": "",
          "type": "uint256"
        },
        {
          "internalType": "uint256",
          "name": "",
          "type": "uint256"
        }
      ],
      "stateMutability": "view",
      "type": "function"
    },
    {
      "inputs": [
        {
          "internalType": "address",
          "name": "userAddress",
          "type": "address"
        }
      ],
      "name": "getUserReferralBonus",
      "outputs": [
        {
          "internalType": "uint256",
          "name": "",
          "type": "uint256"
        }
      ],
      "stateMutability": "view",
      "type": "function"
    },
    {
      "inputs": [
        {
          "internalType": "address",
          "name": "userAddress",
          "type": "address"
        }
      ],
      "name": "getUserReferralTotalBonus",
      "outputs": [
        {
          "internalType": "uint256",
          "name": "",
          "type": "uint256"
        }
      ],
      "stateMutability": "view",
      "type": "function"
    },
    {
      "inputs": [
        {
          "internalType": "address",
          "name": "userAddress",
          "type": "address"
        }
      ],
      "name": "getUserReferralWithdrawn",
      "outputs": [
        {
          "internalType": "uint256",
          "name": "",
          "type": "uint256"
        }
      ],
      "stateMutability": "view",
      "type": "function"
    },
    {
      "inputs": [
        {
          "internalType": "address",
          "name": "userAddress",
          "type": "address"
        }
      ],
      "name": "getUserReferrer",
      "outputs": [
        {
          "internalType": "address",
          "name": "",
          "type": "address"
        }
      ],
      "stateMutability": "view",
      "type": "function"
    },
    {
      "inputs": [
        {
          "internalType": "address",
          "name": "userAddress",
          "type": "address"
        }
      ],
      "name": "getUserTotalDeposits",
      "outputs": [
        {
          "internalType": "uint256",
          "name": "amount",
          "type": "uint256"
        }
      ],
      "stateMutability": "view",
      "type": "function"
    },
    {
      "inputs": [
        {
          "internalType": "address",
          "name": "referrer",
          "type": "address"
        },
        {
          "internalType": "uint8",
          "name": "plan",
          "type": "uint8"
        }
      ],
      "name": "invest",
      "outputs": [],
      "stateMutability": "payable",
      "type": "function"
    },
    {
      "inputs": [],
      "name": "projectWallet",
      "outputs": [
        {
          "internalType": "address payable",
          "name": "",
          "type": "address"
        }
      ],
      "stateMutability": "view",
      "type": "function"
    },
    {
      "inputs": [],
      "name": "startUNIX",
      "outputs": [
        {
          "internalType": "uint256",
          "name": "",
          "type": "uint256"
        }
      ],
      "stateMutability": "view",
      "type": "function"
    },
    {
      "inputs": [],
      "name": "totalRefBonus",
      "outputs": [
        {
          "internalType": "uint256",
          "name": "",
          "type": "uint256"
        }
      ],
      "stateMutability": "view",
      "type": "function"
    },
    {
      "inputs": [],
      "name": "totalStaked",
      "outputs": [
        {
          "internalType": "uint256",
          "name": "",
          "type": "uint256"
        }
      ],
      "stateMutability": "view",
      "type": "function"
    },
    {
      "inputs": [],
      "name": "withdraw",
      "outputs": [],
      "stateMutability": "payable",
      "type": "function"
    }
  ],
  "bytecode": "0x60806040526040518060600160405280603260ff168152602001601960ff168152602001600560ff1681525060009060036200003d92919062000350565b503480156200004b57600080fd5b50604051620030a3380380620030a38339818101604052810190620000719190620003f4565b62000082836200033d60201b60201c565b156200008d57600080fd5b600081116200009b57600080fd5b82600660006101000a81548173ffffffffffffffffffffffffffffffffffffffff021916908373ffffffffffffffffffffffffffffffffffffffff16021790555081600760006101000a81548173ffffffffffffffffffffffffffffffffffffffff021916908373ffffffffffffffffffffffffffffffffffffffff1602179055508060058190555060036040518060400160405280600e815260200160608152509080600181540180825580915050600190039060005260206000209060020201600090919091909150600082015181600001556020820151816001015550506003604051806040016040528060158152602001606581525090806001815401808255809150506001900390600052602060002090600202016000909190919091506000820151816000015560208201518160010155505060036040518060400160405280601c8152602001606b81525090806001815401808255809150506001900390600052602060002090600202016000909190919091506000820151816000015560208201518160010155505060036040518060400160405280600e815260200160608152509080600181540180825580915050600190039060005260206000209060020201600090919091909150600082015181600001556020820151816001015550506003604051806040016040528060158152602001606581525090806001815401808255809150506001900390600052602060002090600202016000909190919091506000820151816000015560208201518160010155505060036040518060400160405280601c8152602001606b815250908060018154018082558091505060019003906000526020600020906002020160009091909190915060008201518160000155602082015181600101555050505050620004bc565b600080823b905060008111915050919050565b82805482825590600052602060002090810192821562000394579160200282015b8281111562000393578251829060ff1690559160200191906001019062000371565b5b509050620003a39190620003a7565b5090565b5b80821115620003c2576000816000905550600101620003a8565b5090565b600081519050620003d78162000488565b92915050565b600081519050620003ee81620004a2565b92915050565b6000806000606084860312156200040a57600080fd5b60006200041a86828701620003c6565b93505060206200042d86828701620003c6565b92505060406200044086828701620003dd565b9150509250925092565b600062000457826200045e565b9050919050565b600073ffffffffffffffffffffffffffffffffffffffff82169050919050565b6000819050919050565b62000493816200044a565b81146200049f57600080fd5b50565b620004ad816200047e565b8114620004b957600080fd5b50565b612bd780620004cc6000396000f3fe6080604052600436106101c25760003560e01c80636bb18556116100f7578063a8aeb6c211610095578063c234123811610064578063c2341238146106be578063d7ffca91146106e9578063e262113e14610726578063e85abe0914610751576101c2565b8063a8aeb6c2146105d6578063aecaa63414610613578063beb08ab914610651578063c0806b031461067c576101c2565b80637e3abeea116100d15780637e3abeea14610506578063817b1cd2146105435780638ea5220f1461056e578063a51b953314610599576101c2565b80636bb18556146104735780636f9fb98a146104b05780637d8cb7a2146104db576101c2565b80633ccfd60b11610164578063581c5ae61161013e578063581c5ae6146103b05780635936cf61146103cc578063600d20ce1461040b57806369b11dd514610448576101c2565b80633ccfd60b1461033e57806348c372031461034857806357fc86b414610385576101c2565b8063153ab9df116101a0578063153ab9df1461026e57806332bc298c146102ab57806336144c9a146102d657806339422ab014610313576101c2565b806301c234a8146101c757806303a93c0c146101f2578063040a772e14610231575b600080fd5b3480156101d357600080fd5b506101dc61078e565b6040516101e99190612858565b60405180910390f35b3480156101fe57600080fd5b50610219600480360381019061021491906124b1565b610794565b6040516102289392919061289c565b60405180910390f35b34801561023d57600080fd5b50610258600480360381019061025391906124b1565b61091d565b6040516102659190612858565b60405180910390f35b34801561027a57600080fd5b50610295600480360381019061029091906124b1565b610d95565b6040516102a29190612858565b60405180910390f35b3480156102b757600080fd5b506102c0610dc1565b6040516102cd9190612858565b60405180910390f35b3480156102e257600080fd5b506102fd60048036038101906102f891906124b1565b610dc8565b60405161030a9190612782565b60405180910390f35b34801561031f57600080fd5b50610328610e34565b6040516103359190612858565b60405180910390f35b610346610e39565b005b34801561035457600080fd5b5061036f600480360381019061036a91906124b1565b611145565b60405161037c9190612858565b60405180910390f35b34801561039157600080fd5b5061039a611191565b6040516103a79190612858565b60405180910390f35b6103ca60048036038101906103c59190612516565b611196565b005b3480156103d857600080fd5b506103f360048036038101906103ee91906125a4565b611afd565b6040516104029392919061289c565b60405180910390f35b34801561041757600080fd5b50610432600480360381019061042d9190612552565b611cee565b60405161043f9190612858565b60405180910390f35b34801561045457600080fd5b5061045d611d12565b60405161046a9190612858565b60405180910390f35b34801561047f57600080fd5b5061049a600480360381019061049591906124b1565b611d18565b6040516104a79190612858565b60405180910390f35b3480156104bc57600080fd5b506104c5611db8565b6040516104d29190612858565b60405180910390f35b3480156104e757600080fd5b506104f0611dc0565b6040516104fd9190612858565b60405180910390f35b34801561051257600080fd5b5061052d600480360381019061052891906124b1565b611dcd565b60405161053a9190612858565b60405180910390f35b34801561054f57600080fd5b50610558611edb565b6040516105659190612858565b60405180910390f35b34801561057a57600080fd5b50610583611ee1565b604051610590919061279d565b60405180910390f35b3480156105a557600080fd5b506105c060048036038101906105bb919061257b565b611f07565b6040516105cd9190612858565b60405180910390f35b3480156105e257600080fd5b506105fd60048036038101906105f891906124b1565b61200e565b60405161060a9190612858565b60405180910390f35b34801561061f57600080fd5b5061063a6004803603810190610635919061257b565b61205d565b604051610648929190612873565b60405180910390f35b34801561065d57600080fd5b50610666612107565b604051610673919061279d565b60405180910390f35b34801561068857600080fd5b506106a3600480360381019061069e91906124da565b61212d565b6040516106b5969594939291906128d3565b60405180910390f35b3480156106ca57600080fd5b506106d3612371565b6040516106e09190612858565b60405180910390f35b3480156106f557600080fd5b50610710600480360381019061070b91906124b1565b612377565b60405161071d9190612858565b60405180910390f35b34801561073257600080fd5b5061073b6123c3565b6040516107489190612858565b60405180910390f35b34801561075d57600080fd5b50610778600480360381019061077391906124b1565b6123ce565b6040516107859190612858565b60405180910390f35b6103e881565b6000806000600460008573ffffffffffffffffffffffffffffffffffffffff1673ffffffffffffffffffffffffffffffffffffffff168152602001908152602001600020600301600060038110610814577f4e487b7100000000000000000000000000000000000000000000000000000000600052603260045260246000fd5b0154600460008673ffffffffffffffffffffffffffffffffffffffff1673ffffffffffffffffffffffffffffffffffffffff168152602001908152602001600020600301600160038110610891577f4e487b7100000000000000000000000000000000000000000000000000000000600052603260045260246000fd5b0154600460008773ffffffffffffffffffffffffffffffffffffffff1673ffffffffffffffffffffffffffffffffffffffff16815260200190815260200160002060030160026003811061090e577f4e487b7100000000000000000000000000000000000000000000000000000000600052603260045260246000fd5b01549250925092509193909250565b600080600460008473ffffffffffffffffffffffffffffffffffffffff1673ffffffffffffffffffffffffffffffffffffffff1681526020019081526020016000209050600080600090505b8260000180549050811015610d8a578260000181815481106109b4577f4e487b7100000000000000000000000000000000000000000000000000000000600052603260045260246000fd5b90600052602060002090600602016005015483600101541015610d77576003836000018281548110610a0f577f4e487b7100000000000000000000000000000000000000000000000000000000600052603260045260246000fd5b906000526020600020906006020160000160009054906101000a900460ff1660ff161015610cbd576000610afa6103e8610aec866000018581548110610a7e577f4e487b7100000000000000000000000000000000000000000000000000000000600052603260045260246000fd5b906000526020600020906006020160010154876000018681548110610acc577f4e487b7100000000000000000000000000000000000000000000000000000000600052603260045260246000fd5b90600052602060002090600602016002015461241a90919063ffffffff16565b61243090919063ffffffff16565b905060008460010154856000018481548110610b3f577f4e487b7100000000000000000000000000000000000000000000000000000000600052603260045260246000fd5b90600052602060002090600602016004015411610b60578460010154610baf565b846000018381548110610b9c577f4e487b7100000000000000000000000000000000000000000000000000000000600052603260045260246000fd5b9060005260206000209060060201600401545b9050600042866000018581548110610bf0577f4e487b7100000000000000000000000000000000000000000000000000000000600052603260045260246000fd5b90600052602060002090600602016005015410610c0d5742610c5c565b856000018481548110610c49577f4e487b7100000000000000000000000000000000000000000000000000000000600052603260045260246000fd5b9060005260206000209060060201600501545b905080821015610cb557610cb2610ca362015180610c95610c86868661244690919063ffffffff16565b8761241a90919063ffffffff16565b61243090919063ffffffff16565b8661245c90919063ffffffff16565b94505b505050610d76565b826000018181548110610cf9577f4e487b7100000000000000000000000000000000000000000000000000000000600052603260045260246000fd5b906000526020600020906006020160050154421115610d7557610d72836000018281548110610d51577f4e487b7100000000000000000000000000000000000000000000000000000000600052603260045260246000fd5b9060005260206000209060060201600301548361245c90919063ffffffff16565b91505b5b5b8080610d8290612ab5565b915050610969565b508092505050919050565b6000610dba610da38361091d565b610dac846123ce565b61245c90919063ffffffff16565b9050919050565b6201518081565b6000600460008373ffffffffffffffffffffffffffffffffffffffff1673ffffffffffffffffffffffffffffffffffffffff16815260200190815260200160002060020160009054906101000a900473ffffffffffffffffffffffffffffffffffffffff169050919050565b609681565b6000600460003373ffffffffffffffffffffffffffffffffffffffff1673ffffffffffffffffffffffffffffffffffffffff168152602001908152602001600020905060003390506000610e8c336123ce565b90506000610e993361091d565b90506000821115610ec45760008460060181905550610ec1828261245c90919063ffffffff16565b90505b6000610eee6103e8610ee060968561241a90919063ffffffff16565b61243090919063ffffffff16565b9050600660009054906101000a900473ffffffffffffffffffffffffffffffffffffffff1673ffffffffffffffffffffffffffffffffffffffff166108fc610f4060028461243090919063ffffffff16565b9081150290604051600060405180830381858888f19350505050158015610f6b573d6000803e3d6000fd5b50600760009054906101000a900473ffffffffffffffffffffffffffffffffffffffff1673ffffffffffffffffffffffffffffffffffffffff166108fc610fbc60028461243090919063ffffffff16565b9081150290604051600060405180830381858888f19350505050158015610fe7573d6000803e3d6000fd5b50610ffb818361244690919063ffffffff16565b91503373ffffffffffffffffffffffffffffffffffffffff167f2899dc8c12def1caa9accb64257cf2fd9f960f21bb27a560a757eae3c2ec43c1826040516110439190612858565b60405180910390a26000821161108e576040517f08c379a0000000000000000000000000000000000000000000000000000000008152600401611085906127b8565b60405180910390fd5b60004790508281101561109f578092505b4286600101819055508473ffffffffffffffffffffffffffffffffffffffff166108fc849081150290604051600060405180830381858888f193505050501580156110ee573d6000803e3d6000fd5b508473ffffffffffffffffffffffffffffffffffffffff167f7084f5476618d8e60b11ef0d7d3f06914655adb8793e28ff7f018d4c76d505d5846040516111359190612858565b60405180910390a2505050505050565b6000600460008373ffffffffffffffffffffffffffffffffffffffff1673ffffffffffffffffffffffffffffffffffffffff168152602001908152602001600020600701549050919050565b600581565b60055442116111da576040517f08c379a00000000000000000000000000000000000000000000000000000000081526004016111d1906127f8565b60405180910390fd5b662386f26fc10000341015611224576040517f08c379a000000000000000000000000000000000000000000000000000000000815260040161121b906127d8565b60405180910390fd5b683635c9adc5dea00000341115611270576040517f08c379a000000000000000000000000000000000000000000000000000000000815260040161126790612818565b60405180910390fd5b60068160ff16106112b6576040517f08c379a00000000000000000000000000000000000000000000000000000000081526004016112ad90612838565b60405180910390fd5b6000600460003373ffffffffffffffffffffffffffffffffffffffff1673ffffffffffffffffffffffffffffffffffffffff1681526020019081526020016000209050600073ffffffffffffffffffffffffffffffffffffffff168160020160009054906101000a900473ffffffffffffffffffffffffffffffffffffffff1673ffffffffffffffffffffffffffffffffffffffff161415611618576000600460008573ffffffffffffffffffffffffffffffffffffffff1673ffffffffffffffffffffffffffffffffffffffff168152602001908152602001600020600001805490501180156113d357503373ffffffffffffffffffffffffffffffffffffffff168373ffffffffffffffffffffffffffffffffffffffff1614155b1561141c57828160020160006101000a81548173ffffffffffffffffffffffffffffffffffffffff021916908373ffffffffffffffffffffffffffffffffffffffff1602179055505b60008160020160009054906101000a900473ffffffffffffffffffffffffffffffffffffffff16905060005b600381101561161557600073ffffffffffffffffffffffffffffffffffffffff168273ffffffffffffffffffffffffffffffffffffffff16146115fd576115146001600460008573ffffffffffffffffffffffffffffffffffffffff1673ffffffffffffffffffffffffffffffffffffffff1681526020019081526020016000206003018360038110611504577f4e487b7100000000000000000000000000000000000000000000000000000000600052603260045260246000fd5b015461245c90919063ffffffff16565b600460008473ffffffffffffffffffffffffffffffffffffffff1673ffffffffffffffffffffffffffffffffffffffff168152602001908152602001600020600301826003811061158e577f4e487b7100000000000000000000000000000000000000000000000000000000600052603260045260246000fd5b0181905550600460008373ffffffffffffffffffffffffffffffffffffffff1673ffffffffffffffffffffffffffffffffffffffff16815260200190815260200160002060020160009054906101000a900473ffffffffffffffffffffffffffffffffffffffff169150611602565b611615565b808061160d90612ab5565b915050611448565b50505b600073ffffffffffffffffffffffffffffffffffffffff168160020160009054906101000a900473ffffffffffffffffffffffffffffffffffffffff1673ffffffffffffffffffffffffffffffffffffffff161461196a5760008160020160009054906101000a900473ffffffffffffffffffffffffffffffffffffffff16905060005b600381101561196757600073ffffffffffffffffffffffffffffffffffffffff168273ffffffffffffffffffffffffffffffffffffffff161461194f5760006117466103e86117386000858154811061171e577f4e487b7100000000000000000000000000000000000000000000000000000000600052603260045260246000fd5b90600052602060002001543461241a90919063ffffffff16565b61243090919063ffffffff16565b905061179d81600460008673ffffffffffffffffffffffffffffffffffffffff1673ffffffffffffffffffffffffffffffffffffffff1681526020019081526020016000206006015461245c90919063ffffffff16565b600460008573ffffffffffffffffffffffffffffffffffffffff1673ffffffffffffffffffffffffffffffffffffffff1681526020019081526020016000206006018190555061183881600460008673ffffffffffffffffffffffffffffffffffffffff1673ffffffffffffffffffffffffffffffffffffffff1681526020019081526020016000206007015461245c90919063ffffffff16565b600460008573ffffffffffffffffffffffffffffffffffffffff1673ffffffffffffffffffffffffffffffffffffffff16815260200190815260200160002060070181905550813373ffffffffffffffffffffffffffffffffffffffff168473ffffffffffffffffffffffffffffffffffffffff167fd41f7e766eebcc7ff42b11ac8691bdf864db4afc0c55e71d629d54edce460d98846040516118dc9190612858565b60405180910390a4600460008473ffffffffffffffffffffffffffffffffffffffff1673ffffffffffffffffffffffffffffffffffffffff16815260200190815260200160002060020160009054906101000a900473ffffffffffffffffffffffffffffffffffffffff16925050611954565b611967565b808061195f90612ab5565b91505061169c565b50505b6000816000018054905014156119bb574281600101819055507f9fd565cd14c3c391679eb0cad12a14dcf7534e9d3462bcb9b67a098a9bbbc24a336040516119b29190612782565b60405180910390a15b60008060006119ca8534611afd565b925092509250836000016040518060c001604052808760ff16815260200185815260200134815260200184815260200142815260200183815250908060018154018082558091505060019003906000526020600020906006020160009091909190915060008201518160000160006101000a81548160ff021916908360ff1602179055506020820151816001015560408201518160020155606082015181600301556080820151816004015560a082015181600501555050611a973460015461245c90919063ffffffff16565b6001819055503373ffffffffffffffffffffffffffffffffffffffff167f84e02daa69bdb087c9fe8d3041abca495512cb14e723070f6d1d4efface82e5d868534864287604051611aed969594939291906128d3565b60405180910390a2505050505050565b6000806000611b0b85611f07565b925060038560ff161015611ba757611ba060038660ff1681548110611b59577f4e487b7100000000000000000000000000000000000000000000000000000000600052603260045260246000fd5b906000526020600020906002020160000154611b926103e8611b84878961241a90919063ffffffff16565b61243090919063ffffffff16565b61241a90919063ffffffff16565b9150611c6f565b60068560ff161015611c6e5760005b60038660ff1681548110611bf3577f4e487b7100000000000000000000000000000000000000000000000000000000600052603260045260246000fd5b906000526020600020906002020160000154811015611c6c57611c57611c486103e8611c3a87611c2c888b61245c90919063ffffffff16565b61241a90919063ffffffff16565b61243090919063ffffffff16565b8461245c90919063ffffffff16565b92508080611c6490612ab5565b915050611bb6565b505b5b611ce5611cd66201518060038860ff1681548110611cb6577f4e487b7100000000000000000000000000000000000000000000000000000000600052603260045260246000fd5b90600052602060002090600202016000015461241a90919063ffffffff16565b4261245c90919063ffffffff16565b90509250925092565b60008181548110611cfe57600080fd5b906000526020600020016000915090505481565b60025481565b6000611db1600460008473ffffffffffffffffffffffffffffffffffffffff1673ffffffffffffffffffffffffffffffffffffffff16815260200190815260200160002060060154600460008573ffffffffffffffffffffffffffffffffffffffff1673ffffffffffffffffffffffffffffffffffffffff1681526020019081526020016000206007015461244690919063ffffffff16565b9050919050565b600047905090565b683635c9adc5dea0000081565b600080600090505b600460008473ffffffffffffffffffffffffffffffffffffffff1673ffffffffffffffffffffffffffffffffffffffff16815260200190815260200160002060000180549050811015611ed557611ec0600460008573ffffffffffffffffffffffffffffffffffffffff1673ffffffffffffffffffffffffffffffffffffffff1681526020019081526020016000206000018281548110611e9f577f4e487b7100000000000000000000000000000000000000000000000000000000600052603260045260246000fd5b9060005260206000209060060201600201548361245c90919063ffffffff16565b91508080611ecd90612ab5565b915050611dd5565b50919050565b60015481565b600760009054906101000a900473ffffffffffffffffffffffffffffffffffffffff1681565b6000600554421115611fb757611fb0611f5362015180611f45611f356005544261244690919063ffffffff16565b600561241a90919063ffffffff16565b61243090919063ffffffff16565b60038460ff1681548110611f90577f4e487b7100000000000000000000000000000000000000000000000000000000600052603260045260246000fd5b90600052602060002090600202016001015461245c90919063ffffffff16565b9050612009565b60038260ff1681548110611ff4577f4e487b7100000000000000000000000000000000000000000000000000000000600052603260045260246000fd5b90600052602060002090600202016001015490505b919050565b6000600460008373ffffffffffffffffffffffffffffffffffffffff1673ffffffffffffffffffffffffffffffffffffffff168152602001908152602001600020600001805490509050919050565b60008060038360ff168154811061209d577f4e487b7100000000000000000000000000000000000000000000000000000000600052603260045260246000fd5b906000526020600020906002020160000154915060038360ff16815481106120ee577f4e487b7100000000000000000000000000000000000000000000000000000000600052603260045260246000fd5b9060005260206000209060020201600101549050915091565b600660009054906101000a900473ffffffffffffffffffffffffffffffffffffffff1681565b6000806000806000806000600460008a73ffffffffffffffffffffffffffffffffffffffff1673ffffffffffffffffffffffffffffffffffffffff16815260200190815260200160002090508060000188815481106121b5577f4e487b7100000000000000000000000000000000000000000000000000000000600052603260045260246000fd5b906000526020600020906006020160000160009054906101000a900460ff169650806000018881548110612212577f4e487b7100000000000000000000000000000000000000000000000000000000600052603260045260246000fd5b9060005260206000209060060201600101549550806000018881548110612262577f4e487b7100000000000000000000000000000000000000000000000000000000600052603260045260246000fd5b90600052602060002090600602016002015494508060000188815481106122b2577f4e487b7100000000000000000000000000000000000000000000000000000000600052603260045260246000fd5b9060005260206000209060060201600301549350806000018881548110612302577f4e487b7100000000000000000000000000000000000000000000000000000000600052603260045260246000fd5b9060005260206000209060060201600401549250806000018881548110612352577f4e487b7100000000000000000000000000000000000000000000000000000000600052603260045260246000fd5b9060005260206000209060060201600501549150509295509295509295565b60055481565b6000600460008373ffffffffffffffffffffffffffffffffffffffff1673ffffffffffffffffffffffffffffffffffffffff168152602001908152602001600020600101549050919050565b662386f26fc1000081565b6000600460008373ffffffffffffffffffffffffffffffffffffffff1673ffffffffffffffffffffffffffffffffffffffff168152602001908152602001600020600601549050919050565b6000818361242891906129cc565b905092915050565b6000818361243e919061299b565b905092915050565b600081836124549190612a26565b905092915050565b6000818361246a9190612945565b905092915050565b60008135905061248181612b5c565b92915050565b60008135905061249681612b73565b92915050565b6000813590506124ab81612b8a565b92915050565b6000602082840312156124c357600080fd5b60006124d184828501612472565b91505092915050565b600080604083850312156124ed57600080fd5b60006124fb85828601612472565b925050602061250c85828601612487565b9150509250929050565b6000806040838503121561252957600080fd5b600061253785828601612472565b92505060206125488582860161249c565b9150509250929050565b60006020828403121561256457600080fd5b600061257284828501612487565b91505092915050565b60006020828403121561258d57600080fd5b600061259b8482850161249c565b91505092915050565b600080604083850312156125b757600080fd5b60006125c58582860161249c565b92505060206125d685828601612487565b9150509250929050565b6125e981612a6c565b82525050565b6125f881612a5a565b82525050565b600061260b601583612934565b91507f5573657220686173206e6f206469766964656e647300000000000000000000006000830152602082019050919050565b600061264b601983612934565b91507f4d696e696d756d20696e766573746d656e7420697320302e31000000000000006000830152602082019050919050565b600061268b601483612934565b91507f576520617265206e6f74206c69766520796574210000000000000000000000006000830152602082019050919050565b60006126cb602a83612934565b91507f596f752063616e206e6f7420696e76657374206d6f7265207468616e2031303060008301527f3030206174206f6e6365000000000000000000000000000000000000000000006020830152604082019050919050565b6000612731600c83612934565b91507f496e76616c696420706c616e00000000000000000000000000000000000000006000830152602082019050919050565b61276d81612a9e565b82525050565b61277c81612aa8565b82525050565b600060208201905061279760008301846125ef565b92915050565b60006020820190506127b260008301846125e0565b92915050565b600060208201905081810360008301526127d1816125fe565b9050919050565b600060208201905081810360008301526127f18161263e565b9050919050565b600060208201905081810360008301526128118161267e565b9050919050565b60006020820190508181036000830152612831816126be565b9050919050565b6000602082019050818103600083015261285181612724565b9050919050565b600060208201905061286d6000830184612764565b92915050565b60006040820190506128886000830185612764565b6128956020830184612764565b9392505050565b60006060820190506128b16000830186612764565b6128be6020830185612764565b6128cb6040830184612764565b949350505050565b600060c0820190506128e86000830189612773565b6128f56020830188612764565b6129026040830187612764565b61290f6060830186612764565b61291c6080830185612764565b61292960a0830184612764565b979650505050505050565b600082825260208201905092915050565b600061295082612a9e565b915061295b83612a9e565b9250827fffffffffffffffffffffffffffffffffffffffffffffffffffffffffffffffff038211156129905761298f612afe565b5b828201905092915050565b60006129a682612a9e565b91506129b183612a9e565b9250826129c1576129c0612b2d565b5b828204905092915050565b60006129d782612a9e565b91506129e283612a9e565b9250817fffffffffffffffffffffffffffffffffffffffffffffffffffffffffffffffff0483118215151615612a1b57612a1a612afe565b5b828202905092915050565b6000612a3182612a9e565b9150612a3c83612a9e565b925082821015612a4f57612a4e612afe565b5b828203905092915050565b6000612a6582612a7e565b9050919050565b6000612a7782612a7e565b9050919050565b600073ffffffffffffffffffffffffffffffffffffffff82169050919050565b6000819050919050565b600060ff82169050919050565b6000612ac082612a9e565b91507fffffffffffffffffffffffffffffffffffffffffffffffffffffffffffffffff821415612af357612af2612afe565b5b600182019050919050565b7f4e487b7100000000000000000000000000000000000000000000000000000000600052601160045260246000fd5b7f4e487b7100000000000000000000000000000000000000000000000000000000600052601260045260246000fd5b612b6581612a5a565b8114612b7057600080fd5b50565b612b7c81612a9e565b8114612b8757600080fd5b50565b612b9381612aa8565b8114612b9e57600080fd5b5056fea2646970667358221220892d58c4816bae1ac4fc8fa4de6b9f8de81b99ec46eca20f62005cb03a57f66464736f6c63430008000033",
  "linkReferences": {},
  "deployedLinkReferences": {}
}